{
  "contractName": "StorageDemo",
  "abi": [
    {
      "inputs": [],
      "stateMutability": "nonpayable",
      "type": "constructor"
    },
    {
      "inputs": [
        {
          "internalType": "uint256",
          "name": "a",
          "type": "uint256"
        }
      ],
      "name": "setStore",
      "outputs": [],
      "stateMutability": "nonpayable",
      "type": "function"
    },
    {
      "inputs": [],
      "name": "getStore",
      "outputs": [
        {
          "internalType": "uint256",
          "name": "",
          "type": "uint256"
        }
      ],
      "stateMutability": "view",
      "type": "function",
      "constant": true
    }
  ],
  "bytecode": "0x608060405234801561001057600080fd5b5033600160006101000a81548173ffffffffffffffffffffffffffffffffffffffff021916908373ffffffffffffffffffffffffffffffffffffffff1602179055506000808190555061025d806100686000396000f3fe608060405234801561001057600080fd5b50600436106100365760003560e01c80637f626f1a1461003b578063c2722ecc14610057575b600080fd5b61005560048036038101906100509190610153565b610075565b005b61005f61010f565b60405161006c919061018f565b60405180910390f35b600160009054906101000a900473ffffffffffffffffffffffffffffffffffffffff1673ffffffffffffffffffffffffffffffffffffffff163373ffffffffffffffffffffffffffffffffffffffff1614610105576040517f08c379a00000000000000000000000000000000000000000000000000000000081526004016100fc90610207565b60405180910390fd5b8060008190555050565b60008054905090565b600080fd5b6000819050919050565b6101308161011d565b811461013b57600080fd5b50565b60008135905061014d81610127565b92915050565b60006020828403121561016957610168610118565b5b60006101778482850161013e565b91505092915050565b6101898161011d565b82525050565b60006020820190506101a46000830184610180565b92915050565b600082825260208201905092915050565b7f4e4f5420414e204f574e45520000000000000000000000000000000000000000600082015250565b60006101f1600c836101aa565b91506101fc826101bb565b602082019050919050565b60006020820190508181036000830152610220816101e4565b905091905056fea2646970667358221220b249eb7b66306be150e661613ccc165bd74051f9b445cbdb95b75310e130095664736f6c634300080a0033",
  "immutableReferences": {},
  "source": "// SPDX-License-Identifier: GPL-3.0\r\n\r\npragma solidity 0.8.10;\r\n\r\ncontract StorageDemo\r\n{\r\nuint256 private store; \r\naddress owner;\r\nconstructor()  {\r\nowner=msg.sender;\r\nstore=0;\r\n}\r\nfunction setStore(uint256 a) onlyOwner public \r\n{\r\nstore=a;\r\n}\r\nmodifier onlyOwner()\r\n{\r\n    require(msg.sender==owner,\"NOT AN OWNER\");\r\n    _;\r\n}\r\nfunction getStore() public view returns(uint256)\r\n{\r\n    return store;\r\n}\r\n\r\n\r\n}",
  "sourcePath": "D:\\Block-Course\\CGC-Landran\\EthDApp\\MetaMaskLogin\\contracts\\Storagedemo.sol",
  "compiler": {
    "name": "solc",
    "version": "0.8.10+commit.fc410830.Emscripten.clang"
  },
  "schemaVersion": "3.4.3",
  "updatedAt": "2022-04-06T09:37:07.055Z",
  "networkType": "ethereum",
  "devdoc": {
    "kind": "dev",
    "methods": {},
    "version": 1
  },
  "userdoc": {
    "kind": "user",
    "methods": {},
    "version": 1
  }
}